:030000000219568C
:0C195600787FE4F6D8FD75812002199D11
:101BF6000D0A0052756E2063616C63756C61746FBB
:041C0600720D0A0051
:081C1700450000EFF7FBFDFEA4
:03002300021A605E
:101A6000C0E0C083C082C0D075D000C006C00730BF
:101A70009904C299C200309822C298900011E0FFE8
:101A800004F0EF3395E0FE741D2FF58274003EF5EF
:101A900083E599F0900011E0540FF0D007D006D004
:081AA000D0D082D083D0E032E7
:101B9C0075985075D7E875D6FF758E15E4900011C1
:081BAC00F0900010F0C20022CD
:081C20002000FDD2008F992283
:101B3300900037EBF0A3EAF0A3E9F0900037E0FB65
:101B4300A3E0FAA3E0F912049C6017900037A3E422
:101B530075F00112051AA9F0FA12049CFF121C2059
:031B630080D92204
:101B66007B017A00796B12146E7B017A00796B1215
:0B1B76001B337BFF7A1B79F6021B3348
:101B81007B017A0079751211F57B017A0079751262
:0B1B91001B337BFF7A1B79F6021B332D
:03004B00021C2F65
:061C2F0075CDC0C20032B9
:101BB4002000FDD200C2B58FCF2000FDAF058FCF2E
:081BC400D2002000FDD2B52281
:10002600E4FD7F0F121BB40D7F0C121BB47D077FFE
:100036000B121BB4FD7F09121BB47D087F0A021B3D
:01004600B405
:100003007B027A00AF03E4FD121BB40BBB00010AB1
:0D001300EB64094A70EE7D807F01021BB492
:10156300900048EEF0A3EFF0ED12064115B200151E
:10157300BE0115CA0216060315EE0415D60516128A
:101583000615FA0715E208161E09159AFD159FFEA2
:1015930015A8FF0000162BEB44018003EB444FFD1D
:1015A3007F08021628900048A3E0FFAD03807690E1
:1015B3000048A3E0FFEB447EFD806A900048A3E06F
:1015C300FFEB4430FD805E900048A3E0FFEB446DE9
:1015D300FD8052900048A3E0FFEB445BFD80469002
:1015E3000048A3E0FFEB447FFD803A900048A3E06E
:1015F300FFEB4433FD802E900048A3E0FFEB4470E3
:10160300FD8022900048A3E0FFEB4479FD80169013
:101613000048A3E0FFEB445FFD800A900048A3E08D
:09162300FFEB447BFD121BB42215
:10162C00900037EFF0ED14603214604E14606A14C1
:10163C0070030216C4240460030216E3900037E022
:10164C002421601424F0600D24F2600614700C7FC9
:10165C0019227F01227F04227F0722900037E02489
:10166C0021601424F0600D24F2600614700C7F00CD
:10167C00227F02227F05227F0822900037E024215E
:10168C00601424F0600D24F2600614700C7F0A22A2
:10169C007F03227F06227F0922900037E0242160FD
:1016AC001424F0600D24F2600614700C7F11227F5C
:1016BC0012227F13227F1422900037E02421601421
:1016CC0024F0600D24F2600614700C7F15227F1636
:0A16DC00227F17227F18227FFF22D1
:1018C400E0FCA3E0FDA3E0FEA3E0FF1203B4EC12EE
:1018D400037690000C120604E4900012F090000CC1
:0E18E400E0FCA3E0FDA3E0FEA3E0FF1203B4CE
:0618F200900045120604FF
:1018F800900049E4F0A304F0E47B0AFAF9F89000B8
:1019080045E0FCA3E0FDA3E0FEA3E0FF121AEFE42C
:10191800FBFAF9F8C312058D502B900045E0FCA3A3
:10192800E0FDA3E0FEA3E0FFE47B0AF8121AEF90C3
:10193800004512060490004AE004F070BB9000498C
:0D194800E004F080B3900049E0FEA3E0FF52
:01195500226F
:060F2300900037120604E5
:100F2900900013E0600CA3E0FB7DFE7F087E0002C9
:100F390015637FFF90003CE060027FFDAD079000E4
:100F490014E0FB7F087E0012156390003D12061025
:100F5900000F4240E4900047F0900045F0A3740769
:100F6900F090003DE0F8A3E0F9A3E0FAA3E0FB90DC
:100F79000037E0FCA3E0FDA3E0FEA3E0FF121AEFB7
:100F8900900041120604E4F9900047E0700B9000CC
:100F990041A3A3A3E0900047F090003BE0FFFD7C54
:100FA90000900045E0FAA3E0FBB50508ECB50204A2
:100FB900A37401F0900047E0D394005006EB64015C
:100FC9004A701E7E00EBB50706EEB50202798090E5
:100FD9000041A3A3A3E0FDAB01A3E0FEA3E0FF80D2
:100FE9000E900045E0FEA3E0FFAD01AB057DFF12C9
:100FF9001563900037E0FCA3E0FDA3E0FEA3E0FF4A
:10100900C004C005C006C00790003DE0FCA3E0FD98
:10101900A3E0FEA3E0FFA3E0F8A3E0F9A3E0FAA3AD
:10102900E0FB120530A804A905AA06AB07D007D032
:1010390006D005D004C3EF9BFFEE9AFEED99FDECB7
:1010490098FC90003712060490003DE0FCA3E0FDF7
:10105900A3E0FEA3E0FFE47B0AFAF9F8121AEF9085
:10106900003D120604900046E024FFF0900045E0A0
:1010790034FFF0D3A3E09400900045E064809480AD
:051089004003020F6AA4
:01108E00223F
:101BCC00000075080B750903750AE3D50AFDD509E4
:041BDC00FAD508F737
:011BE00022E2
:1019E200900012E0FB701090000CE0FCA3E0FDA35D
:1019F200E0FEA3E0FF8035EB24FFFDE434FFFC12A0
:101A0200037B90003F1206047F007E007D207C4114
:101A120012108FA804A905AA06AB0790000CE0FCDF
:101A2200A3E0FDA3E0FEA3E0FF12024F90003712F5
:101A3200060490000BE06017900037E0FCA3E0FD85
:101A4200A3E0FEA3E0FF12036590003712060490A4
:0D1A52000037E0FCA3E0FDA3E0FEA3E0FFF1
:011A5F002264
:071C28009000137401F0228B
:1007350090000AE024EE602C1460481460642403E1
:1007450060030207E4900015E0FCA3E0FDA3E0FED2
:10075500A3E0FFA3E0F8A3E0F9A3E0FAA3E0FB120E
:1007650000558075900015E0FCA3E0FDA3E0FEA315
:10077500E0FFA3E0F8A3E0F9A3E0FAA3E0FB120091
:10078500518056900015E0FCA3E0FDA3E0FEA3E038
:10079500FFA3E0F8A3E0F9A3E0FAA3E0FB1201460A
:1007A5008037E4FFFEFDFC900019E0F8A3E0F9A313
:1007B500E0FAA3E0FB1202EC7002805B900015E00A
:1007C500FCA3E0FDA3E0FEA3E0FFA3E0F8A3E0F9AE
:1007D500A3E0FAA3E0FB12024F9000151206047F76
:1007E5007F7E967D187C4B900015E0F8A3E0F9A379
:1007F500E0FAA3E0FB1202EC6002501B7F7F7E96BD
:100805007D187CCB900015E0F8A3E0F9A3E0FAA3EE
:10081500E0FB1202EC5003021C28E4FFFEFDFC90F5
:100825000015E0F8A3E0F9A3E0FAA3E0FB1202EC5F
:10083500500890000B7401F08005E490000BF090D7
:100845000015E0FCA3E0FDA3E0FEA3E0FF121C0AF7
:100855009000371206049000371218C490003BEE42
:10086500F0A3EFF0900037E0FCA3E0FDA3E0FEA3CA
:10087500E0FF1203B4EC120376900037E0F8A3E032
:10088500F9A3E0FAA3E0FB1202EC7003020A4F9011
:100895000037E0FCA3E0FDA3E0FEA3E0FF90000C21
:1008A500E0F8A3E0F9A3E0FAA3E0FB120051900001
:1008B5003712060490003CE02401FE90003BE03432
:1008C5000090003DF0A3CEF0C390003EE094089068
:1008D500003DE06480948040030209A3900037E066
:1008E500FCA3E0FDA3E0FEA3E0FFE4FBFA7920789A
:1008F50041120146900037120604900037E0FCA330
:10090500E0FDA3E0FEA3E0FF1203B490003FEEF08C
:10091500A3EFF0E4FFFE7D207C4190000CE0F8A3FE
:10092500E0F9A3E0FAA3E0FB120146C004C005C04C
:1009350006C00790003FE0FCA3E0FDEC12037BD06E
:1009450003D002D001D00012005590000C1206040D
:10095500900037E0FCA3E0FDA3E0FEA3E0FFC004A8
:10096500C005C006C007900037A3A3A3E01203B4D7
:10097500EC120376A804A905AA06AB07D007D00692
:10098500D005D00412005190003712060490003EA5
:10099500E004F0700690003DE004F00208CD900000
:1009A5003BA3E0FFC374089F900012F090003BE466
:1009B500F0A304F090000CE0FCA3E0FDA3E0FEA38F
:1009C500E0FF900037120604E4FBFA7920784190A5
:1009D5000037E0FCA3E0FDA3E0FEA3E0FF12024F19
:1009E5001203B4E47B0AFAF9F8120530EC12037627
:1009F500900037E0F8A3E0F9A3E0FAA3E0FB1202C8
:100A0500EC7047FBFA7920784190000CE0FCA3E0FC
:100A1500FDA3E0FEA3E0FF12024F1203B4EC1203A4
:100A25007690000C120604900012E014F090003C41
:100A3500E004F0700690003BE004F090003BE070AD
:0A0A450004A3E0640760030209B98E
:010A4F002284
:060CEC009000371206041F
:100CF200E4FFFEFDFC900037E0F8A3E0F9A3E0FA80
:100D0200A3E0FB1202EC500890000B7401F0800586
:100D1200E490000BF0900037E0FCA3E0FDA3E0FEBE
:100D2200A3E0FF121C0A90003B12060490003B1243
:100D320018C490003FEEF0A3EFF090003BE0FCA35C
:100D4200E0FDA3E0FEA3E0FF1203B4EC12037690F1
:100D5200003BE0F8A3E0F9A3E0FAA3E0FB1202EC07
:100D62007003020F2290003BE0FCA3E0FDA3E0FE33
:100D7200A3E0FF90000CE0F8A3E0F9A3E0FAA3E0FF
:100D8200FB12005190003B120604900040E0240147
:100D9200FE90003FE03400900041F0A3CEF0C390FB
:100DA2000042E09408900041E06480948040030295
:100DB2000E7690003BE0FCA3E0FDA3E0FEA3E0FF83
:100DC200E4FBFA7920784112014690003B120604B6
:100DD20090003BE0FCA3E0FDA3E0FEA3E0FF1203D2
:100DE200B4900043EEF0A3EFF0E4FFFE7D207C41DF
:100DF20090000CE0F8A3E0F9A3E0FAA3E0FB1201F3
:100E020046C004C005C006C007900043E0FCA3E052
:100E1200FDEC12037BD003D002D001D000120055AA
:100E220090000C12060490003BE0FCA3E0FDA3E05E
:100E3200FEA3E0FFC004C005C006C00790003BA3AC
:100E4200A3A3E01203B4EC120376A804A905AA0630
:100E5200AB07D007D006D005D00412005190003B5A
:100E6200120604900042E004F07006900041E00493
:100E7200F0020DA090003FA3E0FFC374089F900012
:100E820012F090003FE4F0A304F090000CE0FCA309
:100E9200E0FDA3E0FEA3E0FF90003B120604E4FBAA
:100EA200FA7920784190003BE0FCA3E0FDA3E0FE4C
:100EB200A3E0FF12024F1203B4E47B0AFAF9F8121C
:100EC2000530EC12037690003BE0F8A3E0F9A3E0D2
:100ED200FAA3E0FB1202EC7047FBFA79207841900A
:100EE200000CE0FCA3E0FDA3E0FEA3E0FF12024F32
:100EF2001203B4EC12037690000C12060490001256
:100F0200E014F0900040E004F0700690003FE0042E
:100F1200F090003FE07004A3E064076003020E8CCF
:010F220022AC
:101AA80012002612000375A0FF90000C1206100009
:101AB80000000090001512061000000000900019A8
:101AC80012061000000000E4900005F0900013F0EA
:101AD800900012F090000AF0A3F090003BF0A3F001
:071AE800FFFEFDFC020F23CD
:100A5000E4F594F593F592F591F596F595F5B2F5E3
:100A6000B1F5B475B3FFF5CAF5C975FF5075CED0B1
:100A700075CDC075AF0275A20C121B9CD2ACD2AF63
:100A8000C200120026120003E4900014F090000649
:100A90001206100000000090002F7401F0A3F0A3D4
:100AA000F0E4A3F0121AA87BFF7A1B79F9121B332A
:100AB0007590FF90002E74FFF0E4FDFC74002DF59E
:100AC0008274003CF583E0F5A0E590F460089000A6
:100AD0002EE590F0800B0DBD00010CED64054C700F
:100AE000DB75A0FF90002EE0FFF47003020CE3A37F
:100AF000E060BD12162C90002DEFF0BF1913121AF2
:100B0000A890002F7401F0A3F0A3F0E4A3F0020C6E
:100B10007790002DE0C3940A4003020BC5900012A9
:100B2000E0C394074003020BC5900032E0601790C9
:100B3000000C12061000000000E4900032F090005B
:100B40000BF0900012F090000CE0FCA3E0FDA3E09D
:100B5000FEA3E0FFE4FBFA79207841120146900001
:100B60000C12060490000CE0F8A3E0F9A3E0FAA34D
:100B7000E0FBC000C001C002C00390002DE0FCE417
:100B8000120380D003D002D001D000120055900093
:100B90000C120604900012E0600204F07F7F7E9643
:100BA0007D187C4B90000CE0F8A3E0F9A3E0FAA3D9
:100BB000E0FB1202EC60025003020C779000137409
:100BC00001F0020C7790002DE0B40A0B900012E0C7
:100BD000700504F0020C7790002DE0FF6411600FA7
:100BE000EF6412600AEF64136005EF6414701E90E6
:100BF000000AEFF0900031E0601A1219E29000153F
:100C0000120604E4900031F0A304F0806A90002DF5
:100C1000E0B415141219E290001912060490003184
:100C20007401F0120735804F90002DE0B4181112B6
:100C300019E29000061206049000147480F08037C8
:100C400090002DE0FBB41611E4900014F090000623
:100C500012061000000000801EEBB4171A9000145A
:100C6000E0D394004011900006E0FCA3E0FDA3E077
:100C7000FEA3E0FF120CEC900012E0FCE4120380F3
:100C800090003F1206047F007E007D207C41121000
:100C90008FA804A905AA06AB0790000CE0FCA3E00E
:100CA000FDA3E0FEA3E0FF12024F90003312060402
:100CB00090000CE0FCA3E0FDA3E0FEA3E0FF120324
:100CC000B4900012E090003BF090000BE090003CEC
:100CD000F0120F2390002E74FFF0E4A3F0121BCC4F
:0C0CE000020AB090002F7401F0020AB06C
:0B182B00900087EBF0A3EAF0A3E9F0C7
:10183600E4A3F0A3F0121BE1EF24FFFFEE34FF90C8
:10184600008CF0A3EFF090008CE0FEA3E0FF900088
:101856008AE0FCA3E0FDC39FEE6480F8EC64809808
:10186600505B900087E0FBA3E0FAA3E0F98D828C41
:10187600831204B590008EF090008CA3E0F5828E62
:10188600831204B58D828C831204E290008EE0FFF1
:1018960090008CE0FCA3E0F5828C83EF1204E290CA
:1018A600008BE004F0700690008AE004F090008D52
:0D18B600E024FFF090008CE034FFF080890A
:0118C3002202
:10146E0090005C120604900060EBF0A3EAF0A3E992
:01147E00F07D
:10147F0090005CE0FCA3E0FDA3E0FEA3E0FF900082
:10148F0067120604EC33501790005CE0FCA3E0FDFC
:10149F00A3E0FEA3E0FF12057F90005C120604900C
:1014AF00006312061000000000E47B0AFAF9F890BE
:1014BF00005CE0FCA3E0FDA3E0FEA3E0FF121AEF47
:1014CF00EB2430FFC0079000631205CF900060E05F
:1014DF00FBA3E0FAA3E0F98F828E83D0E01204E23F
:1014EF0090005CE0FCA3E0FDA3E0FEA3E0FFE47B43
:1014FF000AFAF9F8121AEF90005C120604E4FBFAEC
:10150F00F9F8C312058D40A1900067E0FCA3E0FD40
:10151F00A3E0FEA3E0FFEC33501A9000631205CF57
:10152F00900060E0FBA3E0FAA3E0F98F828E837452
:10153F002D1204E2900063A3A3E0FEA3E0FF90004E
:10154F0060E0FBA3E0FAA3E0F98F828E83E412043C
:04155F00E202182B61
:0B16E60090004FE0FBA3E0FAA3E0F946
:1016F10090007E120604900082EBF0A3EAF0A3E9C9
:01170100F0F7
:10170200E4A3F0A3F090007EE0FCA3E0FDA3E0FEE2
:10171200A3E0FFEC4D4E4F604FE47B0AFAF9F890DC
:10172200007EA3A3A3E0121AEFEB2430FF90008205
:10173200E0FBA3E0FAA3E0F9A3E475F00112051AB5
:1017420085F082F583EF1204E290007EE0FCA3E0D4
:10175200FDA3E0FEA3E0FFE47B0AFAF9F8121AEF18
:1017620090007E120604809D900082E0FBA3E0FAC6
:10177200A3E0F912182B900082E0FBA3E0FAA3E0A9
:0F178200F9A3E0FEA3E0FFF5828E83E40204E208
:1011F50090004B12060490004FEBF0A3EAF0A3E930
:01120500F0F8
:1012060090004BE0FCA3E0FDA3E0FEA3E0FF120389
:10121600B4900052120604900052E0FCA3E0FDA335
:10122600E0FEA3E0FFEC120376A804A905AA06AB2C
:101236000790004BE0FCA3E0FDA3E0FEA3E0FF1255
:101246000051900056120604900052E0FCA3E0FD07
:10125600A3E0FEA3E0FF1216E690005AEEF0A3EF1D
:10126600F090004FE0FBA3E0FAA3E0F990005AE00B
:10127600FEA3E0F5828E83742E1204E2900056E0FF
:10128600FCA3E0FDA3E0FEA3E0FFE4FBFA792078EF
:101296004112014690005612060490005AE0FEA341
:1012A600E0FF900050EE8FF0120504900056E0FC2F
:1012B600A3E0FDA3E0FEA3E0FF1203B4EC4D4E4F06
:1012C600607C900050E475F001120504900056E031
:1012D600FCA3E0FDA3E0FEA3E0FF1203B41216E6B2
:1012E600900056E0FCA3E0FDA3E0FEA3E0FFC004EF
:1012F600C005C006C007900056A3A3A3E01203B41E
:10130600EC120376A804A905AA06AB07D007D006F7
:10131600D005D004120051900056120604900056D3
:10132600E0FCA3E0FDA3E0FEA3E0FFE4FBFA7920E6
:0E13360078411201469000561206040212B1D0
:011344002286
:10004E00020420E86480F8E933E83360110460F0BC
:10005E00ED33EC337009E8FCE9FDEAFEEBFF220418
:10006E0060DED3EB9FEA9EE99DE8C2E78CF0C2F713
:10007E0095F0400CE8CCF8E9CDF9EACEFAEBCFFBDF
:10008E001203EB85D0F05804700320D5B3E804704A
:10009E00075002B2D502042A92D5EC0460F7E4CCE4
:1000AE00C0E0C398F8603B94186008400DD0E0FBA8
:1000BE00020402E4FBFAC9FC8028E830E406E4C935
:1000CE00FBE4CAFCE830E305E4C9CACBFCE85407FC
:1000DE006010F8C3E913F9EA13FAEB13FBEC13FC07
:1000EE00D8F130F52FC3E49CFCEF9BFFEE9AFEEDAA
:1000FE0099FDD0E0FBEF4E4D4C701222DB03020453
:10010E0027EC2CFCEF33FFEE33FEED33FDED30E745
:10011E00EB020402EF2BFFEE3AFEED39FDD0E0FBD1
:10012E0050130BBB000302042AED13FDEE13FEEF7A
:08013E0013FFEC13FC020402A4
:10014600EC4D6011E8497017ED33EC3304600DE4B3
:10015600FCFFFEFD22E933E8330470F802042012A6
:1001660003EB58046009E4CC2481500628500902A8
:10017600042A284003020427C0E0EB4A7044B980F1
:1001860006D0E0FB020416EF4E701CBD8008EBFFA4
:10019600EAFEE9FD80EBE98DF0A4FEE5F002022F10
:1001A600E9CDF9EAFEEBFFEF89F0A4FCE5F0CE8994
:1001B600F0A42EFFE435F0CD89F0A42DFEE435F051
:1001C6008067EF4E7005BD80D780C3EF8BF0A4AC7F
:1001D600F0EE8BF0A42CFCE435F0F8EF8AF0A42CBA
:1001E600E5F038FCE433CB8DF0A42CFCE5F03BF8CD
:1001F600EE8AF0A42CFCE5F038F8E433CF89F0A4BD
:100206002CFCE5F038CF3400CE89F0A42FFFE5F0C2
:100216003EFEE433C98DF0A42EFEE5F039CD8AF01A
:10022600A42FFFE5F03EFEE43DFD33D0E0FB500792
:100236000BBB000F02042AEC2CFCEF33FFEE33FE5F
:06024600ED33FD0204028D
:10024C0002042AEC5D046005E859047003020420E2
:10025C001203EB580460F6EC4860F2EC7004FDFEFF
:10026C00FF22C860DB2481C85009C3986002500685
:10027C000204279850CAF582E9294B4A7005AB82D3
:10028C0002041675F0007C1A7880C3EF9BEE9AED91
:10029C0099400DC3EF9BFFEE9AFEED99FDE842F0FD
:1002AC00DC23ACF0D0E0FFD0E0FED0E0FDAB822050
:1002BC00E7101BEB60BAEC2CFCEF33FFEE33FEEDDA
:1002CC0033FD020402E803F830E705C0F075F000D6
:1002DC00EF2FFFEE33FEED33FD40B830E7C280AABE
:1002EC0074F8CC6480CCC86480C8F58204604FC3B9
:1002FC00EB9FF5F0EA9E42F0E99D42F0E89C45F058
:10030C00603C501DE5825FFFE582D313CB5BCBF4E1
:10031C002B5582FB50280ABA002409B9002008800A
:10032C001DE5825BFBE582D313CF5FCFF4C3132FA4
:10033C005582FF50090EBE00050DBD00010CC3EB2C
:10034C009FF5F0EA9E42F0E99D42F0E89C45F06092
:09035C0007CC4820E701B3EC22B4
:10036500ED33EC33600A047003BD8004ECB2E7FCA6
:010375002265
:1003760075F020800E75F010800575F0087D007E02
:10038600007F003392D530D50312057FEC33401041
:10039600EF33FFEE33FEED33FDEC33FCD5F0ED220B
:0E03A600E5F0247EA2D513CC92E7CDCEFF2247
:1003B400EDD2E7CD33EC3392D524814006E4FFFE41
:1003C400FDFC22FCE4CFCECDCC24E0501174FF80A0
:1003D400EDC3CC13CCCD13CDCE13CECF13CF04703D
:0703E400F030D5DE02057FB9
:0D1C0A00ED33EC3360065004EC6480FC22E6
:10108F0090003B120604E4FFFE7D807C3F90003B06
:10109F00E0F8A3E0F9A3E0FAA3E0FB1202EC70067C
:1010AF0090003B0211E990003BE0FCA3E0FDA3E0C0
:1010BF00FEA3E0FF120435FBA3E0FCA3E0FDA3E0D9
:1010CF00FEA3E0FF120435FFB40108E4FFFE7D80AC
:1010DF007C3F22EF64046029EB64046024EBB401CD
:1010EF0030E4FFFEFDFC90003FE0F8A3E0F9A3E041
:1010FF00FAA3E0FB1202EC60084006E4FFFEFDFCE1
:10110F002290003F120610FFFFFFFF90003F0211D9
:10111F00E9E4900043F0A3F0FFFEFDFC90003BE0FC
:10112F00F8A3E0F9A3E0FAA3E0FB1202EC505F9002
:10113F00003FE0FCA3E0FDA3E0FEA3E0FF1203B439
:10114F00900043EEF0A3EFF0FDCCEECCEC12037B5E
:10115F00C8ECC8C9EDC9CAEECACBEFCB90003FE0CF
:10116F00FCA3E0FDA3E0FEA3E0FF120051E4FBFAB5
:10117F00F9F81202EC708A90003BE0FCA3E0FDA3AB
:10118F00E0FEA3E0FF12036590003B1206049000FF
:10119F003BE0FCA3E0FDA3E0FEA3E0FF1213799078
:1011AF00003FE0F8A3E0F9A3E0FAA3E0FB12014649
:1011BF001217C990003F120604900044E030E01768
:1011CF0090003FE0FCA3E0FDA3E0FEA3E0FF1203CD
:1011DF006590003F12060490003FE0FCA3E0FDA3E2
:0611EF00E0FEA3E0FF2278
:1003EB00E9D2E7C933E833F892D5EDD2E7CD33EC58
:0703FB0033FC5002B2D522D1
:10040200EC30E7100FBF000C0EBE00080DBD00045B
:100412000BEB6014A2D5EB13FCED92E7FD2274FF07
:10042200FCFDFEFF22E480F8A2D574FF13FC7D8060
:03043200E480EF74
:10043500ED33EC33601004700FED547F70057402DA
:0A04450092E0227404220422E42253
:1017910033DA929E35B16011377FE5FE39218489B4
:1017A1003AAEC3FF3C1D955B3D6358473E75FDF066
:1017B1003F3172183F800000C2D502042A02042082
:1017C100BD80FA50F3020427ED33EC330460F17B62
:1017D1003B7AAA79B8783F120146ED33EC3392D5C2
:1017E100247B5011A2D570DB500BED4480240450B2
:1017F10004A2D580CEEFFBEEFAEDF9ECF81203B4BA
:10180100EFF582F404FC120380120055C082901798
:1018110091740912045EED33CC33D0F092D525F0EA
:0A182100A2D57001C313CC13FD2201
:101345003E9248DA3ECCCCCD3F2AAAAB4000000005
:101355003F8000003F9837F03FB504F33FD744FC8A
:101365003E3172173EB172173F0515913EDE5BD9CE
:10137500D2018002C201EDD2E7F8CD33EC3304701F
:101385000BBD800592D502042A02042040FBD3142C
:1013950060F2F5F07C3FEE7A00C39496C8948B40DA
:1013A500230AC89469C8941A401A0AC89468C8944C
:1013B5001F40110AC8945AC89425400805F07A00C0
:1013C500CDC2E7CDC0F0900045120604EA2323C044
:1013D500E02455F582E43413F5831205BF12005558
:1013E500ECC0E0EDC0E0EEC0E0EFC0E01205A39078
:1013F50000451205B3120051D0E0FBD0E0FAD0E071
:10140500F9D0E0B2E7F812024F90004512060490B9
:101415001345740312044F9000451205B31201469B
:10142500D0E0600F2461F582E43413F5831205BF23
:10143500120055900045120604D0E0C3947FFDE4E8
:101445009400FC12037B7B187A727931783F120184
:10145500469000451205B312005530010B7BD97A31
:091465005B79DE783E120146229B
:10044F00C0E0EFFBEEFAEDF9ECF8120146D0E0F563
:10045F00F0EFFBEEFAEDF9ECF81205A3A3A3A3A3BB
:10046F00E8C0E0E9C0E0EAC0E0EBC0E0C0F0120194
:10047F00461205BFA3A3A3A3120055D0F0D0E0FBF3
:0D048F00D0E0FAD0E0F9D0E0F8D5F0D422AA
:10196200020A50E493A3F8E493A34003F68001F241
:1019720008DFF48029E493A3F85407240CC8C33386
:10198200C4540F4420C8834004F456800146F6DF55
:10199200E4800B0102040810204080901C17E47EB2
:1019A200019360BCA3FF543F30E509541FFEE4934A
:1019B200A360010ECF54C025E060A840B8E493A311
:1019C200FAE493A3F8E493A3C8C582C8CAC583CA3C
:1019D200F0A3C8C582C8CAC583CADFE9DEE780BEF4
:011C1F0000C4
:10049C00BB010689828A83E0225002E722BBFE025E
:0904AC00E32289828A83E4932291
:1004B500BB010CE58229F582E5833AF583E02250FC
:1004C50006E92582F8E622BBFE06E92582F8E22246
:0D04D500E58229F582E5833AF583E4932260
:1004E200F8BB010DE58229F582E5833AF583E8F050
:1004F200225006E92582C8F622BBFE05E92582C8FC
:02050200F222E3
:10050400C5F0F8A3E028F0C5F0F8E5821582700282
:060514001583E038F0221F
:10051A00A3F8E0C5F025F0F0E58215827002158394
:06052A00E0C838F0E822F1
:10053000E88FF0A4CC8BF0A42CFCE98EF0A42CFC6A
:100540008AF0EDA42CFCEA8EF0A4CDA8F08BF0A4E8
:100550002DCC3825F0FDE98FF0A42CCD35F0FCEB47
:100560008EF0A4FEA9F0EB8FF0A4CFC5F02ECD390C
:0F057000FEE43CFCEAA42DCE35F0FDE43CFC2279
:101AEF00C2D5E830E70FB2D5E4C39BFBE49AFAE422
:101AFF0099F9E498F8EC30E717B2D5121B251206C6
:101B0F00A3E4C39BFBE49AFAE499F9E498F8800301
:101B1F001206A330D50DE4C39FFFE49EFEE49DFDA6
:041B2F00E49CFC2214
:0E057F00C3E49FFFE49EFEE49DFDE49CFC228D
:10058D00EB9FF5F0EA9E42F0E99D42F0EC6480C8E5
:06059D0064809845F02285
:1005A300E493FC740193FD740293FE740393FF229E
:0C05B300E0F8A3E0F9A3E0FAA3E0FB22CB
:1005BF00E493F8740193F9740293FA740393FB2292
:1005CF007401FF3395E0FEFDFCA3A3A3E0CF2FF052
:1005DF00E582158270021583E0CE3EF0E58215822A
:1005EF0070021583E0CD3DF0E58215827002158310
:0505FF00E0CC3CF022FD
:0C060400ECF0A3EDF0A3EEF0A3EFF02269
:10061000A8828583F0D083D0821206271206271283
:100620000627120627E473E493A3C583C5F0C583A8
:10063000C8C582C8F0A3C583C5F0C583C8C582C834
:010640002297
:10064100D083D082F8E4937012740193700DA3A348
:1006510093F8740193F5828883E47374029368605C
:06066100EFA3A3A380DF5C
:101BE100E4FFFE12049C600C0FEF70010E09E97016
:051BF100F20A80EF2262
:1006670075F008758200EF2FFFEE33FECD33CDCC4A
:1006770033CCC58233C5829BED9AEC99E5829840CD
:100687000CF582EE9BFEED9AFDEC99FC0FD5F0D6AA
:10069700E4CEFBE4CDFAE4CCF9A88222B800C1B9D4
:1006A7000059BA002DEC8BF084CFCECDFCE5F0CB12
:1006B700F97818EF2FFFEE33FEED33FDEC33FCEB4B
:1006C70033FB10D703994004EB99FB0FD8E5E4F906
:1006D700FA227818EF2FFFEE33FEED33FDEC33FCF3
:1006E700C933C910D7059BE99A4007EC9BFCE99AE7
:1006F700F90FD8E0E4C9FAE4CCFB2275F010EF2F2C
:10070700FFEE33FEED33FDCC33CCC833C810D7072B
:100717009BEC9AE899400AED9BFDEC9AFCE899F866
:0E0727000FD5F0DAE4CDFBE4CCFAE4C8F922F9
:00000001FF
